:020000040000FA
:020000002C28AA
:040002000034003492
:080008000B118B13A40003305F
:10001000A5008519152805191B2885182128850193
:100020002008F32086008515262885012108F32065
:1000300086000515262885012208F32086008514F0
:10004000262885012308F32086000514EC30810062
:10005000250883002408090007309F00EC30810048
:10006000831601308600F030850081128111011461
:10007000811401158B178B168312AC01A801A901FD
:10008000AA01AB010230AC0085018601A001A101EB
:10009000A201A301051B051B7B20051B9020031D4E
:1000A0005C2803119620031D5C2803118A20031D80
:1000B0005C28031184200311851B7B20851BAF2046
:1000C000031D6D28B920031D6D280311A620031DF3
:1000D0006D2803119C2003110311051A44280618EA
:1000E000AC0B732876280618C3204A287B20D6201C
:1000F0000230AC004A28FF30A600FF30A700A70B53
:100100007F28A60B7D280800A00A20080A3A0319B8
:10011000A0010800A10A21080A3A0319A101080058
:10012000A20A22080A3A0319A2010800A30A230816
:100130000A3A0319A3010800A0032008013E031C8A
:100140000800A1010930A00703150800A103210838
:10015000013E031C0800A1010930A1070315A203F9
:100160002208013E031C0800A2010930A207031562
:100170000800A3032308013E031C0800A301093063
:10018000A307031508002008A80003012108A900FF
:1001900003012208AA0003012308AB000301850123
:1001A0008601A001A101A201A30108002A08A2075B
:1001B0000A30A2020319DD28E0289620A201E728D0
:1001C000031CE328E6280A30A207E72896202B081C
:1001D000A3070A30A302031CEE28F1280A30A30764
:1001E000F2288A20080082077F340D34B7349F3408
:0C01F000CD34DB34FB340F34FF34CF344B
:02400E00103F61
:00000001FF
